{
  "_format": "hh-sol-artifact-1",
  "contractName": "bMUSD",
  "sourceName": "contracts/bMUSD.sol",
  "abi": [
    {
      "inputs": [],
      "stateMutability": "nonpayable",
      "type": "constructor"
    },
    {
      "anonymous": false,
      "inputs": [
        {
          "indexed": true,
          "internalType": "address",
          "name": "owner",
          "type": "address"
        },
        {
          "indexed": true,
          "internalType": "address",
          "name": "spender",
          "type": "address"
        },
        {
          "indexed": false,
          "internalType": "uint256",
          "name": "value",
          "type": "uint256"
        }
      ],
      "name": "Approval",
      "type": "event"
    },
    {
      "anonymous": false,
      "inputs": [
        {
          "indexed": true,
          "internalType": "address",
          "name": "oldManager",
          "type": "address"
        },
        {
          "indexed": true,
          "internalType": "address",
          "name": "newManager",
          "type": "address"
        }
      ],
      "name": "DebtManagerUpdated",
      "type": "event"
    },
    {
      "anonymous": false,
      "inputs": [
        {
          "indexed": true,
          "internalType": "address",
          "name": "previousOwner",
          "type": "address"
        },
        {
          "indexed": true,
          "internalType": "address",
          "name": "newOwner",
          "type": "address"
        }
      ],
      "name": "OwnershipTransferred",
      "type": "event"
    },
    {
      "anonymous": false,
      "inputs": [
        {
          "indexed": true,
          "internalType": "address",
          "name": "from",
          "type": "address"
        },
        {
          "indexed": true,
          "internalType": "address",
          "name": "to",
          "type": "address"
        },
        {
          "indexed": false,
          "internalType": "uint256",
          "name": "value",
          "type": "uint256"
        }
      ],
      "name": "Transfer",
      "type": "event"
    },
    {
      "inputs": [
        {
          "internalType": "address",
          "name": "owner",
          "type": "address"
        },
        {
          "internalType": "address",
          "name": "spender",
          "type": "address"
        }
      ],
      "name": "allowance",
      "outputs": [
        {
          "internalType": "uint256",
          "name": "",
          "type": "uint256"
        }
      ],
      "stateMutability": "view",
      "type": "function"
    },
    {
      "inputs": [
        {
          "internalType": "address",
          "name": "spender",
          "type": "address"
        },
        {
          "internalType": "uint256",
          "name": "amount",
          "type": "uint256"
        }
      ],
      "name": "approve",
      "outputs": [
        {
          "internalType": "bool",
          "name": "",
          "type": "bool"
        }
      ],
      "stateMutability": "nonpayable",
      "type": "function"
    },
    {
      "inputs": [
        {
          "internalType": "address",
          "name": "account",
          "type": "address"
        }
      ],
      "name": "balanceOf",
      "outputs": [
        {
          "internalType": "uint256",
          "name": "",
          "type": "uint256"
        }
      ],
      "stateMutability": "view",
      "type": "function"
    },
    {
      "inputs": [
        {
          "internalType": "address",
          "name": "from",
          "type": "address"
        },
        {
          "internalType": "uint256",
          "name": "amount",
          "type": "uint256"
        }
      ],
      "name": "burn",
      "outputs": [],
      "stateMutability": "nonpayable",
      "type": "function"
    },
    {
      "inputs": [],
      "name": "debtManager",
      "outputs": [
        {
          "internalType": "address",
          "name": "",
          "type": "address"
        }
      ],
      "stateMutability": "view",
      "type": "function"
    },
    {
      "inputs": [],
      "name": "decimals",
      "outputs": [
        {
          "internalType": "uint8",
          "name": "",
          "type": "uint8"
        }
      ],
      "stateMutability": "view",
      "type": "function"
    },
    {
      "inputs": [
        {
          "internalType": "address",
          "name": "spender",
          "type": "address"
        },
        {
          "internalType": "uint256",
          "name": "subtractedValue",
          "type": "uint256"
        }
      ],
      "name": "decreaseAllowance",
      "outputs": [
        {
          "internalType": "bool",
          "name": "",
          "type": "bool"
        }
      ],
      "stateMutability": "nonpayable",
      "type": "function"
    },
    {
      "inputs": [
        {
          "internalType": "address",
          "name": "spender",
          "type": "address"
        },
        {
          "internalType": "uint256",
          "name": "addedValue",
          "type": "uint256"
        }
      ],
      "name": "increaseAllowance",
      "outputs": [
        {
          "internalType": "bool",
          "name": "",
          "type": "bool"
        }
      ],
      "stateMutability": "nonpayable",
      "type": "function"
    },
    {
      "inputs": [
        {
          "internalType": "address",
          "name": "to",
          "type": "address"
        },
        {
          "internalType": "uint256",
          "name": "amount",
          "type": "uint256"
        }
      ],
      "name": "mint",
      "outputs": [],
      "stateMutability": "nonpayable",
      "type": "function"
    },
    {
      "inputs": [],
      "name": "name",
      "outputs": [
        {
          "internalType": "string",
          "name": "",
          "type": "string"
        }
      ],
      "stateMutability": "view",
      "type": "function"
    },
    {
      "inputs": [],
      "name": "owner",
      "outputs": [
        {
          "internalType": "address",
          "name": "",
          "type": "address"
        }
      ],
      "stateMutability": "view",
      "type": "function"
    },
    {
      "inputs": [],
      "name": "renounceOwnership",
      "outputs": [],
      "stateMutability": "nonpayable",
      "type": "function"
    },
    {
      "inputs": [
        {
          "internalType": "address",
          "name": "_debtManager",
          "type": "address"
        }
      ],
      "name": "setDebtManager",
      "outputs": [],
      "stateMutability": "nonpayable",
      "type": "function"
    },
    {
      "inputs": [],
      "name": "symbol",
      "outputs": [
        {
          "internalType": "string",
          "name": "",
          "type": "string"
        }
      ],
      "stateMutability": "view",
      "type": "function"
    },
    {
      "inputs": [],
      "name": "totalSupply",
      "outputs": [
        {
          "internalType": "uint256",
          "name": "",
          "type": "uint256"
        }
      ],
      "stateMutability": "view",
      "type": "function"
    },
    {
      "inputs": [
        {
          "internalType": "address",
          "name": "to",
          "type": "address"
        },
        {
          "internalType": "uint256",
          "name": "amount",
          "type": "uint256"
        }
      ],
      "name": "transfer",
      "outputs": [
        {
          "internalType": "bool",
          "name": "",
          "type": "bool"
        }
      ],
      "stateMutability": "nonpayable",
      "type": "function"
    },
    {
      "inputs": [
        {
          "internalType": "address",
          "name": "from",
          "type": "address"
        },
        {
          "internalType": "address",
          "name": "to",
          "type": "address"
        },
        {
          "internalType": "uint256",
          "name": "amount",
          "type": "uint256"
        }
      ],
      "name": "transferFrom",
      "outputs": [
        {
          "internalType": "bool",
          "name": "",
          "type": "bool"
        }
      ],
      "stateMutability": "nonpayable",
      "type": "function"
    },
    {
      "inputs": [
        {
          "internalType": "address",
          "name": "newOwner",
          "type": "address"
        }
      ],
      "name": "transferOwnership",
      "outputs": [],
      "stateMutability": "nonpayable",
      "type": "function"
    }
  ],
  "bytecode": "0x60806040523461037057604080519081016001600160401b0381118282101761027b576040908152600c82526b109a5d18dbda5b88135554d160a21b602083015280519081016001600160401b0381118282101761027b57604052600581526418935554d160da1b602082015281516001600160401b03811161027b57600354600181811c91168015610366575b602082101461025b57601f8111610301575b50602092601f821160011461029c5792819293600092610291575b50508160011b916000199060031b1c1916176003555b80516001600160401b03811161027b57600454600181811c91168015610271575b602082101461025b57601f81116101f6575b50602091601f821160011461019257918192600092610187575b50508160011b916000199060031b1c1916176004555b60058054336001600160a01b03198216811790925560405191906001600160a01b03167f8be0079c531659141344cd1fd0a4f28419497f9722a3daafe3b4186f6b6457e0600080a3610e1b90816103768239f35b01519050388061011d565b601f198216926004600052806000209160005b8581106101de575083600195106101c5575b505050811b01600455610133565b015160001960f88460031b161c191690553880806101b7565b919260206001819286850151815501940192016101a5565b60046000527f8a35acfbc15ff81a39ae7d344fd709f28e8600b4aa8c65c6b64bfe7fe36bd19b601f830160051c81019160208410610251575b601f0160051c01905b8181106102455750610103565b60008155600101610238565b909150819061022f565b634e487b7160e01b600052602260045260246000fd5b90607f16906100f1565b634e487b7160e01b600052604160045260246000fd5b0151905038806100ba565b601f198216936003600052806000209160005b8681106102e957508360019596106102d0575b505050811b016003556100d0565b015160001960f88460031b161c191690553880806102c2565b919260206001819286850151815501940192016102af565b60036000527fc2575a0e9e593c00f959f8c92f12db2869c3395a3b0502d05e2516446f71f85b601f830160051c8101916020841061035c575b601f0160051c01905b818110610350575061009f565b60008155600101610343565b909150819061033a565b90607f169061008d565b600080fdfe608080604052600436101561001357600080fd5b60003560e01c90816306fdde031461099b57508063095ea7b31461097557806318160ddd1461095757806323b872dd14610899578063313ce5671461087d578063395093511461082b57806340c10f191461071357806360b3a033146106ea57806370a08231146106b0578063715018a6146106535780638bfc007c146105a45780638da5cb5b1461057b57806395d89b411461045a5780639dc29fac146102db578063a457c2d714610234578063a9059cbb14610203578063dd62ed3e146101b25763f2fde38b146100e557600080fd5b346101ad5760203660031901126101ad576100fe610ab7565b610106610d8d565b6001600160a01b0316801561015957600580546001600160a01b0319811683179091556001600160a01b03167f8be0079c531659141344cd1fd0a4f28419497f9722a3daafe3b4186f6b6457e0600080a3005b60405162461bcd60e51b815260206004820152602660248201527f4f776e61626c653a206e6577206f776e657220697320746865207a65726f206160448201526564647265737360d01b6064820152608490fd5b600080fd5b346101ad5760403660031901126101ad576101cb610ab7565b6101d3610acd565b6001600160a01b039182166000908152600160209081526040808320949093168252928352819020549051908152f35b346101ad5760403660031901126101ad5761022961021f610ab7565b6024359033610c0e565b602060405160018152f35b346101ad5760403660031901126101ad5761024d610ab7565b60243590336000526001602052604060002060018060a01b038216600052602052604060002054918083106102885761022992039033610b06565b60405162461bcd60e51b815260206004820152602560248201527f45524332303a2064656372656173656420616c6c6f77616e63652062656c6f77604482015264207a65726f60d81b6064820152608490fd5b346101ad5760403660031901126101ad576102f4610ab7565b60065460243591906001600160a01b03163303610415576001600160a01b031680156103c65780600052600060205260406000205491808310610376576020817fddf252ad1be2c89b69c2b068fc378daa952ba7f163c4a11628f55a4df523b3ef926000958587528684520360408620558060025403600255604051908152a3005b60405162461bcd60e51b815260206004820152602260248201527f45524332303a206275726e20616d6f756e7420657863656564732062616c616e604482015261636560f01b6064820152608490fd5b60405162461bcd60e51b815260206004820152602160248201527f45524332303a206275726e2066726f6d20746865207a65726f206164647265736044820152607360f81b6064820152608490fd5b60405162461bcd60e51b815260206004820152601a60248201527f4f6e6c792064656274206d616e616765722063616e206275726e0000000000006044820152606490fd5b346101ad5760003660031901126101ad5760405160006004548060011c90600181168015610571575b60208310811461055d5782855290811561054157506001146104ea575b50819003601f01601f191681019067ffffffffffffffff8211818310176104d4576104d082918260405282610a6e565b0390f35b634e487b7160e01b600052604160045260246000fd5b905060046000527f8a35acfbc15ff81a39ae7d344fd709f28e8600b4aa8c65c6b64bfe7fe36bd19b6000905b82821061052b575060209150820101826104a0565b6001816020925483858801015201910190610516565b90506020925060ff191682840152151560051b820101826104a0565b634e487b7160e01b84526022600452602484fd5b91607f1691610483565b346101ad5760003660031901126101ad576005546040516001600160a01b039091168152602090f35b346101ad5760203660031901126101ad576105bd610ab7565b6105c5610d8d565b6001600160a01b0316801561061757600654816001600160a01b0382167f79d5b5ffc7ae34269c06cd9be45a2e4594f888800bb4d7fb596fb5ff6e2fcbd4600080a36001600160a01b03191617600655005b60405162461bcd60e51b815260206004820152601460248201527324b73b30b634b2103232b13a1036b0b730b3b2b960611b6044820152606490fd5b346101ad5760003660031901126101ad5761066c610d8d565b600580546001600160a01b031981169091556000906001600160a01b03167f8be0079c531659141344cd1fd0a4f28419497f9722a3daafe3b4186f6b6457e08280a3005b346101ad5760203660031901126101ad576001600160a01b036106d1610ab7565b1660005260006020526020604060002054604051908152f35b346101ad5760003660031901126101ad576006546040516001600160a01b039091168152602090f35b346101ad5760403660031901126101ad5761072c610ab7565b60065460243591906001600160a01b031633036107e6576001600160a01b03169081156107a1577fddf252ad1be2c89b69c2b068fc378daa952ba7f163c4a11628f55a4df523b3ef602082610785600094600254610ae3565b60025584845283825260408420818154019055604051908152a3005b60405162461bcd60e51b815260206004820152601f60248201527f45524332303a206d696e7420746f20746865207a65726f2061646472657373006044820152606490fd5b60405162461bcd60e51b815260206004820152601a60248201527f4f6e6c792064656274206d616e616765722063616e206d696e740000000000006044820152606490fd5b346101ad5760403660031901126101ad57610229610847610ab7565b336000526001602052604060002060018060a01b03821660005260205261087660406000206024359054610ae3565b9033610b06565b346101ad5760003660031901126101ad57602060405160128152f35b346101ad5760603660031901126101ad576108b2610ab7565b6108ba610acd565b6001600160a01b03821660009081526001602081815260408084203385529091529091205492604435929184016108f6575b6102299350610c0e565b8284106109125761090d8361022995033383610b06565b6108ec565b60405162461bcd60e51b815260206004820152601d60248201527f45524332303a20696e73756666696369656e7420616c6c6f77616e63650000006044820152606490fd5b346101ad5760003660031901126101ad576020600254604051908152f35b346101ad5760403660031901126101ad57610229610991610ab7565b6024359033610b06565b346101ad5760003660031901126101ad5760006003548060011c90600181168015610a64575b60208310811461055d578285529081156105415750600114610a0d5750819003601f01601f191681019067ffffffffffffffff8211818310176104d4576104d082918260405282610a6e565b905060036000527fc2575a0e9e593c00f959f8c92f12db2869c3395a3b0502d05e2516446f71f85b6000905b828210610a4e575060209150820101826104a0565b6001816020925483858801015201910190610a39565b91607f16916109c1565b91909160208152825180602083015260005b818110610aa1575060409293506000838284010152601f8019910116010190565b8060208092870101516040828601015201610a80565b600435906001600160a01b03821682036101ad57565b602435906001600160a01b03821682036101ad57565b91908201809211610af057565b634e487b7160e01b600052601160045260246000fd5b6001600160a01b0316908115610bbd576001600160a01b0316918215610b6d5760207f8c5be1e5ebec7d5bd14f71427d1e84f3dd0314c0f7b2291e5b200ac8c7c3b925918360005260018252604060002085600052825280604060002055604051908152a3565b60405162461bcd60e51b815260206004820152602260248201527f45524332303a20617070726f766520746f20746865207a65726f206164647265604482015261737360f01b6064820152608490fd5b60405162461bcd60e51b8152602060048201526024808201527f45524332303a20617070726f76652066726f6d20746865207a65726f206164646044820152637265737360e01b6064820152608490fd5b6001600160a01b0316908115610d3a576001600160a01b0316918215610ce957816000526000602052604060002054818110610c9557817fddf252ad1be2c89b69c2b068fc378daa952ba7f163c4a11628f55a4df523b3ef9260209285600052600084520360406000205584600052600082526040600020818154019055604051908152a3565b60405162461bcd60e51b815260206004820152602660248201527f45524332303a207472616e7366657220616d6f756e7420657863656564732062604482015265616c616e636560d01b6064820152608490fd5b60405162461bcd60e51b815260206004820152602360248201527f45524332303a207472616e7366657220746f20746865207a65726f206164647260448201526265737360e81b6064820152608490fd5b60405162461bcd60e51b815260206004820152602560248201527f45524332303a207472616e736665722066726f6d20746865207a65726f206164604482015264647265737360d81b6064820152608490fd5b6005546001600160a01b03163303610da157565b606460405162461bcd60e51b815260206004820152602060248201527f4f776e61626c653a2063616c6c6572206973206e6f7420746865206f776e65726044820152fdfea264697066735822122061d131f533251441fa118cffcfc6dff15a5fb3a67efc415bc8a5947813ad38f664736f6c634300081c0033",
  "linkReferences": {},
  "deployedLinkReferences": {}
}