{
  "_format": "hh-sol-artifact-1",
  "contractName": "DebtManager",
  "sourceName": "contracts/DebtManager.sol",
  "abi": [
    {
      "inputs": [
        {
          "internalType": "address",
          "name": "_bmusd",
          "type": "address"
        },
        {
          "internalType": "address",
          "name": "_pythOracle",
          "type": "address"
        },
        {
          "internalType": "bytes32",
          "name": "_btcPriceFeedId",
          "type": "bytes32"
        }
      ],
      "stateMutability": "nonpayable",
      "type": "constructor"
    },
    {
      "anonymous": false,
      "inputs": [
        {
          "indexed": true,
          "internalType": "address",
          "name": "user",
          "type": "address"
        },
        {
          "indexed": false,
          "internalType": "uint256",
          "name": "amount",
          "type": "uint256"
        },
        {
          "indexed": false,
          "internalType": "uint256",
          "name": "totalDebt",
          "type": "uint256"
        }
      ],
      "name": "Borrowed",
      "type": "event"
    },
    {
      "anonymous": false,
      "inputs": [
        {
          "indexed": false,
          "internalType": "uint256",
          "name": "oldRatio",
          "type": "uint256"
        },
        {
          "indexed": false,
          "internalType": "uint256",
          "name": "newRatio",
          "type": "uint256"
        }
      ],
      "name": "LTVRatioUpdated",
      "type": "event"
    },
    {
      "anonymous": false,
      "inputs": [
        {
          "indexed": true,
          "internalType": "address",
          "name": "previousOwner",
          "type": "address"
        },
        {
          "indexed": true,
          "internalType": "address",
          "name": "newOwner",
          "type": "address"
        }
      ],
      "name": "OwnershipTransferred",
      "type": "event"
    },
    {
      "anonymous": false,
      "inputs": [
        {
          "indexed": true,
          "internalType": "address",
          "name": "user",
          "type": "address"
        },
        {
          "indexed": false,
          "internalType": "uint256",
          "name": "amount",
          "type": "uint256"
        },
        {
          "indexed": false,
          "internalType": "uint256",
          "name": "remainingDebt",
          "type": "uint256"
        }
      ],
      "name": "Repaid",
      "type": "event"
    },
    {
      "anonymous": false,
      "inputs": [
        {
          "indexed": true,
          "internalType": "address",
          "name": "oldStrategy",
          "type": "address"
        },
        {
          "indexed": true,
          "internalType": "address",
          "name": "newStrategy",
          "type": "address"
        }
      ],
      "name": "StrategyUpdated",
      "type": "event"
    },
    {
      "anonymous": false,
      "inputs": [
        {
          "indexed": false,
          "internalType": "uint256",
          "name": "amount",
          "type": "uint256"
        },
        {
          "indexed": false,
          "internalType": "uint256",
          "name": "totalDebtReduction",
          "type": "uint256"
        }
      ],
      "name": "YieldProcessed",
      "type": "event"
    },
    {
      "inputs": [],
      "name": "BASIS_POINTS",
      "outputs": [
        {
          "internalType": "uint256",
          "name": "",
          "type": "uint256"
        }
      ],
      "stateMutability": "view",
      "type": "function"
    },
    {
      "inputs": [],
      "name": "MAX_PRICE_AGE",
      "outputs": [
        {
          "internalType": "uint256",
          "name": "",
          "type": "uint256"
        }
      ],
      "stateMutability": "view",
      "type": "function"
    },
    {
      "inputs": [],
      "name": "bmusd",
      "outputs": [
        {
          "internalType": "contract bMUSD",
          "name": "",
          "type": "address"
        }
      ],
      "stateMutability": "view",
      "type": "function"
    },
    {
      "inputs": [
        {
          "internalType": "uint256",
          "name": "amount",
          "type": "uint256"
        }
      ],
      "name": "borrow",
      "outputs": [],
      "stateMutability": "nonpayable",
      "type": "function"
    },
    {
      "inputs": [],
      "name": "btcPriceFeedId",
      "outputs": [
        {
          "internalType": "bytes32",
          "name": "",
          "type": "bytes32"
        }
      ],
      "stateMutability": "view",
      "type": "function"
    },
    {
      "inputs": [
        {
          "internalType": "address",
          "name": "user",
          "type": "address"
        }
      ],
      "name": "getBorrowingCapacity",
      "outputs": [
        {
          "internalType": "uint256",
          "name": "maxBorrow",
          "type": "uint256"
        },
        {
          "internalType": "uint256",
          "name": "currentDebt",
          "type": "uint256"
        },
        {
          "internalType": "uint256",
          "name": "available",
          "type": "uint256"
        }
      ],
      "stateMutability": "view",
      "type": "function"
    },
    {
      "inputs": [],
      "name": "ltvRatio",
      "outputs": [
        {
          "internalType": "uint256",
          "name": "",
          "type": "uint256"
        }
      ],
      "stateMutability": "view",
      "type": "function"
    },
    {
      "inputs": [],
      "name": "owner",
      "outputs": [
        {
          "internalType": "address",
          "name": "",
          "type": "address"
        }
      ],
      "stateMutability": "view",
      "type": "function"
    },
    {
      "inputs": [
        {
          "internalType": "uint256",
          "name": "yieldAmount",
          "type": "uint256"
        }
      ],
      "name": "processYield",
      "outputs": [],
      "stateMutability": "nonpayable",
      "type": "function"
    },
    {
      "inputs": [],
      "name": "pythOracle",
      "outputs": [
        {
          "internalType": "contract IPyth",
          "name": "",
          "type": "address"
        }
      ],
      "stateMutability": "view",
      "type": "function"
    },
    {
      "inputs": [],
      "name": "renounceOwnership",
      "outputs": [],
      "stateMutability": "nonpayable",
      "type": "function"
    },
    {
      "inputs": [
        {
          "internalType": "uint256",
          "name": "amount",
          "type": "uint256"
        }
      ],
      "name": "repay",
      "outputs": [],
      "stateMutability": "nonpayable",
      "type": "function"
    },
    {
      "inputs": [
        {
          "internalType": "uint256",
          "name": "_newLtvRatio",
          "type": "uint256"
        }
      ],
      "name": "setLTVRatio",
      "outputs": [],
      "stateMutability": "nonpayable",
      "type": "function"
    },
    {
      "inputs": [
        {
          "internalType": "address",
          "name": "_strategy",
          "type": "address"
        }
      ],
      "name": "setStrategy",
      "outputs": [],
      "stateMutability": "nonpayable",
      "type": "function"
    },
    {
      "inputs": [],
      "name": "strategy",
      "outputs": [
        {
          "internalType": "address",
          "name": "",
          "type": "address"
        }
      ],
      "stateMutability": "view",
      "type": "function"
    },
    {
      "inputs": [],
      "name": "totalDebt",
      "outputs": [
        {
          "internalType": "uint256",
          "name": "",
          "type": "uint256"
        }
      ],
      "stateMutability": "view",
      "type": "function"
    },
    {
      "inputs": [
        {
          "internalType": "address",
          "name": "newOwner",
          "type": "address"
        }
      ],
      "name": "transferOwnership",
      "outputs": [],
      "stateMutability": "nonpayable",
      "type": "function"
    },
    {
      "inputs": [
        {
          "internalType": "address",
          "name": "",
          "type": "address"
        }
      ],
      "name": "userDebt",
      "outputs": [
        {
          "internalType": "uint256",
          "name": "",
          "type": "uint256"
        }
      ],
      "stateMutability": "view",
      "type": "function"
    }
  ],
  "bytecode": "0x60a03461019657601f6110c138819003918201601f19168301916001600160401b0383118484101761019b5780849260609460405283398101031261019657610047816101b1565b6040610055602084016101b1565b92015160008054336001600160a01b0319821681178355604051939593949290916001600160a01b0316907f8be0079c531659141344cd1fd0a4f28419497f9722a3daafe3b4186f6b6457e09080a3600180556113886005556001600160a01b031691821561015457506001600160a01b031690811561010f57608052600380546001600160a01b031916919091179055600455604051610efb90816101c682396080518181816102310152818161044901526107e30152f35b60405162461bcd60e51b815260206004820152601660248201527f496e76616c6964206f7261636c652061646472657373000000000000000000006044820152606490fd5b62461bcd60e51b815260206004820152601560248201527f496e76616c696420624d555344206164647265737300000000000000000000006044820152606490fd5b600080fd5b634e487b7160e01b600052604160045260246000fd5b51906001600160a01b03821682036101965756fe608080604052600436101561001357600080fd5b600090813560e01c90816309871e6e146109e257508063300e9cbf146109c457806333a100ca1461091457806334a1e0d7146108d0578063371fd8e61461077d578063715018a6146107235780638da5cb5b146106fc5780638fbcd32f146106de5780639d7f7e86146106c1578063a8c62e7614610698578063b69e5c771461065b578063c5ebeaec14610301578063d6c5fdd814610260578063d8cd97d21461021b578063e1f1c4a7146101fe578063f2fde38b14610130578063f5d6ac90146101075763fc7b9c18146100e757600080fd5b346101045780600319360112610104576020600754604051908152f35b80fd5b50346101045780600319360112610104576003546040516001600160a01b039091168152602090f35b5034610104576020366003190112610104576004356001600160a01b038116908190036101fa5761015f610e17565b80156101a65781546001600160a01b03198116821783556001600160a01b03167f8be0079c531659141344cd1fd0a4f28419497f9722a3daafe3b4186f6b6457e08380a380f35b60405162461bcd60e51b815260206004820152602660248201527f4f776e61626c653a206e6577206f776e657220697320746865207a65726f206160448201526564647265737360d01b6064820152608490fd5b5080fd5b503461010457806003193601126101045760206040516127108152f35b50346101045780600319360112610104576040517f00000000000000000000000000000000000000000000000000000000000000006001600160a01b03168152602090f35b50346101045760203660031901126101045760043561027d610e17565b801515806102f6575b156102c3577fe8893a36ef19354911dd63da310b19f4178f6324773a1e0fc276db428303415e60406005548151908152836020820152a160055580f35b60405162461bcd60e51b815260206004820152600b60248201526a24b73b30b634b210262a2b60a91b6044820152606490fd5b506127108110610286565b50346101045760203660031901126101045760043561031e610e6f565b610329811515610dc9565b6002546001600160a01b03168015610623576003546004805460405163052571af60e51b815291820152610e1060248201529190608090839060449082906001600160a01b03165afa9182156105ae5784926105f2575b5083825160070b13156105b9576020602491604051928380926370a0823160e01b82523360048301525afa9081156105ae578491610577575b5080156105425761040261040b916103fc6103f6856103ed604067ffffffffffffffff61271099511692015160030b610bdd565b60030b93610bf2565b91610c05565b90610c13565b60055490610bf2565b043383526006602052610422826040852054610e0a565b90811161050957338352600660205280604084205561044382600754610e0a565b600755827f00000000000000000000000000000000000000000000000000000000000000006001600160a01b0316803b156101fa576040516340c10f1960e01b8152336004820152602481018590529082908290604490829084905af180156104fe576104e5575b505060405191825260208201527feae9cfbc77fdd40ca899f36b608256063b2bc9d8178b0220f7ad513e178d673060403392a26001805580f35b816104ef91610b19565b6104fa5782386104ab565b8280fd5b6040513d84823e3d90fd5b60405162461bcd60e51b815260206004820152601160248201527045786365656473204c545620726174696f60781b6044820152606490fd5b60405162461bcd60e51b815260206004820152600d60248201526c139bc818dbdb1b185d195c985b609a1b6044820152606490fd5b90506020813d6020116105a6575b8161059260209383610b19565b810103126105a15751386103b9565b600080fd5b3d9150610585565b6040513d86823e3d90fd5b60405162461bcd60e51b8152602060048201526011602482015270496e76616c69642042544320707269636560781b6044820152606490fd5b61061591925060803d60801161061c575b61060d8183610b19565b810190610b51565b9038610380565b503d610603565b60405162461bcd60e51b815260206004820152601060248201526f14dd1c985d1959de481b9bdd081cd95d60821b6044820152606490fd5b5034610104576020366003190112610104576004356001600160a01b038116908190036101fa578160409160209352600683522054604051908152f35b50346101045780600319360112610104576002546040516001600160a01b039091168152602090f35b50346101045780600319360112610104576020604051610e108152f35b50346101045780600319360112610104576020600554604051908152f35b5034610104578060031936011261010457546040516001600160a01b039091168152602090f35b503461010457806003193601126101045761073c610e17565b80546001600160a01b03198116825581906001600160a01b03167f8be0079c531659141344cd1fd0a4f28419497f9722a3daafe3b4186f6b6457e08280a380f35b5034610104576020366003190112610104576004359061079b610e6f565b6107a6821515610dc9565b33815260066020528160408220541061089c573381526006602052604081206107d0838254610af6565b90556107de82600754610af6565b6007557f00000000000000000000000000000000000000000000000000000000000000006001600160a01b0316803b156101fa57604051632770a7eb60e21b8152336004820152602481018490529082908290604490829084905af180156104fe5761088c575b50903382526006602052604082205460405191825260208201527f1b8cd61ed43bec7c6bdad3a18ffee613f99c853d16c50678d248d879e1b4343860403392a26001805580f35b8161089691610b19565b38610845565b60405162461bcd60e51b815260206004820152600c60248201526b115e18d959591cc81919589d60a21b6044820152606490fd5b503461010457602036600319011261010457600435906001600160a01b038216820361010457606061090183610c33565b9060405192835260208301526040820152f35b5034610104576020366003190112610104576004356001600160a01b038116908190036101fa57610943610e17565b801561098c57600254816001600160a01b0382167fe4cec16b1a7e6b7979e923da619a8b1e5fd0f0fb6e5c1cf647f350430ee61ca98580a36001600160a01b0319161760025580f35b60405162461bcd60e51b815260206004820152601060248201526f496e76616c696420737472617465677960801b6044820152606490fd5b50346101045780600319360112610104576020600454604051908152f35b9050346101fa5760203660031901126101fa576004359060018060a01b036002541633148015610ae3575b15610ab257508015610a795760075480821115610a735780915b82610a30578380f35b82610a5e7f279bf8e097ebe6fc7a4fa2cb5802f18f169126a43d0349a7a8d588429fb80efc94604094610af6565b60075582519182526020820152a13880808380f35b81610a27565b60405162461bcd60e51b815260206004820152601160248201527005969656c64206d757374206265203e203607c1b6044820152606490fd5b62461bcd60e51b815260206004820152600c60248201526b155b985d5d1a1bdc9a5e995960a21b6044820152606490fd5b5082546001600160a01b03163314610a0d565b91908203918211610b0357565b634e487b7160e01b600052601160045260246000fd5b90601f8019910116810190811067ffffffffffffffff821117610b3b57604052565b634e487b7160e01b600052604160045260246000fd5b908160809103126105a1576040519060006080830167ffffffffffffffff811184821017610bc95760405281518060070b81036101fa578352602082015167ffffffffffffffff811681036101fa5760208401526040820151908160030b820361010457509060609160408401520151606082015290565b634e487b7160e01b82526041600452602482fd5b60030b637fffffff198114610b035760000390565b81810292918115918404141715610b0357565b604d8111610b0357600a0a90565b8115610c1d570490565b634e487b7160e01b600052601260045260246000fd5b6002546001600160a01b031691908215610da957600354600480546040516396834ad360e01b8152918201529190608090839060249082906001600160a01b03165afa918215610d5b57600092610d88575b506000825160070b1315610d6757906020602492604051938480926370a0823160e01b825260018060a01b0316978860048301525afa918215610d5b57600092610d25575b50610402612710926103fc6103f6846103ed604067ffffffffffffffff610cf898511692015160030b610bdd565b0491600052600660205260406000205490818311600014610d2057610d1d8284610af6565b90565b600090565b91506020823d602011610d53575b81610d4060209383610b19565b810103126105a157905190610402610cca565b3d9150610d33565b6040513d6000823e3d90fd5b6001600160a01b031660009081526006602052604081205490935091839150565b610da291925060803d60801161061c5761060d8183610b19565b9038610c85565b6001600160a01b0316600090815260066020526040812054909250908290565b15610dd057565b60405162461bcd60e51b81526020600482015260126024820152710416d6f756e74206d757374206265203e20360741b6044820152606490fd5b91908201809211610b0357565b6000546001600160a01b03163303610e2b57565b606460405162461bcd60e51b815260206004820152602060248201527f4f776e61626c653a2063616c6c6572206973206e6f7420746865206f776e65726044820152fd5b600260015414610e80576002600155565b60405162461bcd60e51b815260206004820152601f60248201527f5265656e7472616e637947756172643a207265656e7472616e742063616c6c006044820152606490fdfea26469706673582212207b7cb025a0fe92b79cce1af7746c8fdbe64d39b541b0deeef775cde9a0098f9164736f6c634300081c0033",
  "linkReferences": {},
  "deployedLinkReferences": {}
}