{
  "_format": "hh-sol-artifact-1",
  "contractName": "Harvester",
  "sourceName": "contracts/Harvester.sol",
  "abi": [
    {
      "inputs": [
        {
          "internalType": "address",
          "name": "_tigrisRouter",
          "type": "address"
        },
        {
          "internalType": "address",
          "name": "_musd",
          "type": "address"
        },
        {
          "internalType": "address",
          "name": "_btc",
          "type": "address"
        }
      ],
      "stateMutability": "nonpayable",
      "type": "constructor"
    },
    {
      "anonymous": false,
      "inputs": [
        {
          "indexed": true,
          "internalType": "address",
          "name": "debtManager",
          "type": "address"
        }
      ],
      "name": "DebtManagerSet",
      "type": "event"
    },
    {
      "anonymous": false,
      "inputs": [
        {
          "indexed": false,
          "internalType": "uint256",
          "name": "musdAmount",
          "type": "uint256"
        },
        {
          "indexed": false,
          "internalType": "uint256",
          "name": "btcAmount",
          "type": "uint256"
        },
        {
          "indexed": false,
          "internalType": "uint256",
          "name": "totalValue",
          "type": "uint256"
        }
      ],
      "name": "Harvested",
      "type": "event"
    },
    {
      "anonymous": false,
      "inputs": [
        {
          "indexed": true,
          "internalType": "address",
          "name": "keeper",
          "type": "address"
        }
      ],
      "name": "KeeperSet",
      "type": "event"
    },
    {
      "anonymous": false,
      "inputs": [
        {
          "indexed": true,
          "internalType": "address",
          "name": "previousOwner",
          "type": "address"
        },
        {
          "indexed": true,
          "internalType": "address",
          "name": "newOwner",
          "type": "address"
        }
      ],
      "name": "OwnershipTransferred",
      "type": "event"
    },
    {
      "anonymous": false,
      "inputs": [
        {
          "indexed": true,
          "internalType": "address",
          "name": "strategy",
          "type": "address"
        }
      ],
      "name": "StrategySet",
      "type": "event"
    },
    {
      "inputs": [],
      "name": "btc",
      "outputs": [
        {
          "internalType": "contract IERC20",
          "name": "",
          "type": "address"
        }
      ],
      "stateMutability": "view",
      "type": "function"
    },
    {
      "inputs": [],
      "name": "debtManager",
      "outputs": [
        {
          "internalType": "address",
          "name": "",
          "type": "address"
        }
      ],
      "stateMutability": "view",
      "type": "function"
    },
    {
      "inputs": [],
      "name": "getClaimableYield",
      "outputs": [
        {
          "internalType": "uint256",
          "name": "claimable0",
          "type": "uint256"
        },
        {
          "internalType": "uint256",
          "name": "claimable1",
          "type": "uint256"
        }
      ],
      "stateMutability": "view",
      "type": "function"
    },
    {
      "inputs": [],
      "name": "harvest",
      "outputs": [],
      "stateMutability": "nonpayable",
      "type": "function"
    },
    {
      "inputs": [],
      "name": "keeper",
      "outputs": [
        {
          "internalType": "address",
          "name": "",
          "type": "address"
        }
      ],
      "stateMutability": "view",
      "type": "function"
    },
    {
      "inputs": [],
      "name": "musd",
      "outputs": [
        {
          "internalType": "contract IERC20",
          "name": "",
          "type": "address"
        }
      ],
      "stateMutability": "view",
      "type": "function"
    },
    {
      "inputs": [],
      "name": "owner",
      "outputs": [
        {
          "internalType": "address",
          "name": "",
          "type": "address"
        }
      ],
      "stateMutability": "view",
      "type": "function"
    },
    {
      "inputs": [],
      "name": "renounceOwnership",
      "outputs": [],
      "stateMutability": "nonpayable",
      "type": "function"
    },
    {
      "inputs": [
        {
          "internalType": "address",
          "name": "_debtManager",
          "type": "address"
        }
      ],
      "name": "setDebtManager",
      "outputs": [],
      "stateMutability": "nonpayable",
      "type": "function"
    },
    {
      "inputs": [
        {
          "internalType": "address",
          "name": "_keeper",
          "type": "address"
        }
      ],
      "name": "setKeeper",
      "outputs": [],
      "stateMutability": "nonpayable",
      "type": "function"
    },
    {
      "inputs": [
        {
          "internalType": "address",
          "name": "_strategy",
          "type": "address"
        }
      ],
      "name": "setStrategy",
      "outputs": [],
      "stateMutability": "nonpayable",
      "type": "function"
    },
    {
      "inputs": [],
      "name": "strategy",
      "outputs": [
        {
          "internalType": "address",
          "name": "",
          "type": "address"
        }
      ],
      "stateMutability": "view",
      "type": "function"
    },
    {
      "inputs": [],
      "name": "tigrisRouter",
      "outputs": [
        {
          "internalType": "contract ITigrisRouter",
          "name": "",
          "type": "address"
        }
      ],
      "stateMutability": "view",
      "type": "function"
    },
    {
      "inputs": [
        {
          "internalType": "address",
          "name": "newOwner",
          "type": "address"
        }
      ],
      "name": "transferOwnership",
      "outputs": [],
      "stateMutability": "nonpayable",
      "type": "function"
    }
  ],
  "bytecode": "0x6080806040523461027257606081610f87803803809161001f8285610277565b83398101031261027257610032816102b0565b61004a6040610043602085016102b0565b93016102b0565b60008054336001600160a01b0319821681178355604051939593949290916001600160a01b0316907f8be0079c531659141344cd1fd0a4f28419497f9722a3daafe3b4186f6b6457e09080a3600180556001600160a01b031691821561023f57506001600160a01b031691821561020b576001600160a01b03169182156101d857600480546001600160a01b03199081168417825560058054821690931790925560068054909216841790915560405163095ea7b360e01b8152908101829052600019602482015291602090839060449082906000905af19081156101b1576000926020926101bd575b5060055460405163095ea7b360e01b81526004810192909252831960248301529092839160449183916001600160a01b03165af180156101b157610182575b604051610caa90816102dd8239f35b6101a39060203d6020116101aa575b61019b8183610277565b8101906102c4565b5038610173565b503d610191565b6040513d6000823e3d90fd5b6101d390833d85116101aa5761019b8183610277565b610134565b60405162461bcd60e51b815260206004820152600b60248201526a496e76616c69642042544360a81b6044820152606490fd5b60405162461bcd60e51b815260206004820152600c60248201526b125b9d985b1a5908135554d160a21b6044820152606490fd5b62461bcd60e51b815260206004820152600e60248201526d24b73b30b634b2103937baba32b960911b6044820152606490fd5b600080fd5b601f909101601f19168101906001600160401b0382119082101761029a57604052565b634e487b7160e01b600052604160045260246000fd5b51906001600160a01b038216820361027257565b9081602091031261027257518015158103610272579056fe6080604052600436101561001257600080fd5b6000803560e01c806333a100ca14610a875780634641257d146104f757806360b3a033146104ce578063715018a614610474578063748747e6146103d05780638bfc007c146102a05780638da5cb5b146102795780638e3a1cb814610252578063a28d57d814610229578063a8c62e7614610200578063a9da3e01146101d7578063aced1661146101ae578063cab666d0146101855763f2fde38b146100b757600080fd5b34610182576020366003190112610182576004356001600160a01b03811690819003610180576100e5610c1c565b801561012c5781546001600160a01b03198116821783556001600160a01b03167f8be0079c531659141344cd1fd0a4f28419497f9722a3daafe3b4186f6b6457e08380a380f35b60405162461bcd60e51b815260206004820152602660248201527f4f776e61626c653a206e6577206f776e657220697320746865207a65726f206160448201526564647265737360d01b6064820152608490fd5b505b80fd5b50346101825780600319360112610182576005546040516001600160a01b039091168152602090f35b50346101825780600319360112610182576007546040516001600160a01b039091168152602090f35b50346101825780600319360112610182576004546040516001600160a01b039091168152602090f35b50346101825780600319360112610182576002546040516001600160a01b039091168152602090f35b50346101825780600319360112610182576006546040516001600160a01b039091168152602090f35b5034610182578060031936011261018257604061026d610ba6565b82519182526020820152f35b5034610182578060031936011261018257546040516001600160a01b039091168152602090f35b5034610182576020366003190112610182576004356001600160a01b03811690819003610180576102cf610c1c565b801561039457600380546001600160a01b0319168217905560055460405163095ea7b360e01b8152600481018390526000196024820152906020908290604490829087906001600160a01b03165af1801561038957610351575b507f37d11a6e11b4b80f3a4367a6a2c69310cfe21b2c48ecde6e089854e15d620b158280a280f35b6020813d602011610381575b8161036a60209383610b2d565b8101031261037d57518015158114610329575b8280fd5b3d915061035d565b6040513d85823e3d90fd5b60405162461bcd60e51b815260206004820152601460248201527324b73b30b634b2103232b13a1036b0b730b3b2b960611b6044820152606490fd5b5034610182576020366003190112610182576004356001600160a01b03811690819003610180576103ff610c1c565b801561043e57600780546001600160a01b031916821790557fdc3dba1d64dd67c0dc8b12621edd0c6ca4303a9073c3a8fcac38115e73d67b6b8280a280f35b60405162461bcd60e51b815260206004820152600e60248201526d24b73b30b634b21035b2b2b832b960911b6044820152606490fd5b503461018257806003193601126101825761048d610c1c565b80546001600160a01b03198116825581906001600160a01b03167f8be0079c531659141344cd1fd0a4f28419497f9722a3daafe3b4186f6b6457e08280a380f35b50346101825780600319360112610182576003546040516001600160a01b039091168152602090f35b5034610182578060031936011261018257600260015414610a425760026001556007546001600160a01b031633148015610a2f575b156109f3576002546001600160a01b031680156109bb576003546001600160a01b03161561097f5760408291600482518094819363406cf22960e01b83525af1801561097457610946575b506005546040516370a0823160e01b8152306004820152829182916001600160a01b0390911690602081602481855afa90811561093b578591610909575b506006546040516370a0823160e01b81523060048201526001600160a01b0390911691602082602481865afa9182156108fe5787926108ca575b50806108c2575b50806108ba575b50836106d1575b50508061064a575b7febdd323f18ba49318367d0c92a04d5c51a67f15a60ad50d46523db464661a302916060916040519181835260208301526040820152a16001805580f35b60035483906001600160a01b0316803b156101805781906024604051809481936304c38f3760e11b83528760048401525af180156106c65761068d575b5061060c565b91836106bd606093957febdd323f18ba49318367d0c92a04d5c51a67f15a60ad50d46523db464661a30295610b2d565b93915091610687565b6040513d86823e3d90fd5b604051916106e0606084610b2d565b60028352602083019160403684378351156108a657825261070083610b80565b526004546001600160a01b0316904261012c81019081106108925792909186926040519485936338ed173960e01b855260a485019089600487015286602487015260a060448701525180915260c485019290865b81811061086d575050508380928692306064840152608483015203925af180156106c65784906107ae575b6107899150610b80565b51810180911161079a573880610604565b634e487b7160e01b83526011600452602483fd5b503d8085833e6107be8183610b2d565b8101906020818303126108655780519067ffffffffffffffff821161086957019080601f830112156108655781519167ffffffffffffffff8311610851578260051b9060208201936108136040519586610b2d565b845260208085019282010192831161084d57602001905b82821061083d575050506107899061077f565b815181526020918201910161082a565b8680fd5b634e487b7160e01b86526041600452602486fd5b8480fd5b8580fd5b82516001600160a01b031685528b975088965060209485019490920191600101610754565b634e487b7160e01b87526011600452602487fd5b634e487b7160e01b87526032600452602487fd5b9350386105fd565b9350386105f6565b9091506020813d6020116108f6575b816108e660209383610b2d565b8101031261084d575190386105ef565b3d91506108d9565b6040513d89823e3d90fd5b90506020813d602011610933575b8161092460209383610b2d565b810103126108655751386105b5565b3d9150610917565b6040513d87823e3d90fd5b6109679060403d60401161096d575b61095f8183610b2d565b810190610b65565b50610577565b503d610955565b6040513d84823e3d90fd5b60405162461bcd60e51b81526020600482015260146024820152731119589d081b585b9859d95c881b9bdd081cd95d60621b6044820152606490fd5b60405162461bcd60e51b815260206004820152601060248201526f14dd1c985d1959de481b9bdd081cd95d60821b6044820152606490fd5b60405162461bcd60e51b815260206004820152601460248201527327b7363c9035b2b2b832b91037b91037bbb732b960611b6044820152606490fd5b5080546001600160a01b0316331461052c565b60405162461bcd60e51b815260206004820152601f60248201527f5265656e7472616e637947756172643a207265656e7472616e742063616c6c006044820152606490fd5b5034610182576020366003190112610182576004356001600160a01b0381169081900361018057610ab6610c1c565b8015610af557600280546001600160a01b031916821790557fe70d79dad95c835bdd87e9cf4665651c9e5abb3b756e4fd2bf45f29c95c3aa408280a280f35b60405162461bcd60e51b815260206004820152601060248201526f496e76616c696420737472617465677960801b6044820152606490fd5b90601f8019910116810190811067ffffffffffffffff821117610b4f57604052565b634e487b7160e01b600052604160045260246000fd5b9190826040910312610b7b576020825192015190565b600080fd5b805160011015610b905760400190565b634e487b7160e01b600052603260045260246000fd5b6002546001600160a01b03168015610c1357604080516311c7439760e31b81529291839060049082905afa918215610c0757600090600093610be757509190565b9050610c0391925060403d60401161096d5761095f8183610b2d565b9091565b6040513d6000823e3d90fd5b50600090600090565b6000546001600160a01b03163303610c3057565b606460405162461bcd60e51b815260206004820152602060248201527f4f776e61626c653a2063616c6c6572206973206e6f7420746865206f776e65726044820152fdfea264697066735822122006e45de0cab3aa1dba318237829fd5aed64ddf109dcd19c0f9a02354d2021f7f64736f6c634300081c0033",
  "linkReferences": {},
  "deployedLinkReferences": {}
}