{
  "_format": "hh-sol-artifact-1",
  "contractName": "StrategyBTC",
  "sourceName": "contracts/StrategyBTC.sol",
  "abi": [
    {
      "inputs": [
        {
          "internalType": "address",
          "name": "_btc",
          "type": "address"
        },
        {
          "internalType": "address",
          "name": "_musd",
          "type": "address"
        },
        {
          "internalType": "address",
          "name": "_tigrisRouter",
          "type": "address"
        },
        {
          "internalType": "address",
          "name": "_musdBtcPool",
          "type": "address"
        }
      ],
      "stateMutability": "nonpayable",
      "type": "constructor"
    },
    {
      "anonymous": false,
      "inputs": [
        {
          "indexed": true,
          "internalType": "address",
          "name": "harvester",
          "type": "address"
        }
      ],
      "name": "HarvesterSet",
      "type": "event"
    },
    {
      "anonymous": false,
      "inputs": [
        {
          "indexed": true,
          "internalType": "address",
          "name": "user",
          "type": "address"
        },
        {
          "indexed": false,
          "internalType": "uint256",
          "name": "btcAmount",
          "type": "uint256"
        },
        {
          "indexed": false,
          "internalType": "uint256",
          "name": "musdAmount",
          "type": "uint256"
        },
        {
          "indexed": false,
          "internalType": "uint256",
          "name": "lpTokens",
          "type": "uint256"
        }
      ],
      "name": "Invested",
      "type": "event"
    },
    {
      "anonymous": false,
      "inputs": [
        {
          "indexed": true,
          "internalType": "address",
          "name": "previousOwner",
          "type": "address"
        },
        {
          "indexed": true,
          "internalType": "address",
          "name": "newOwner",
          "type": "address"
        }
      ],
      "name": "OwnershipTransferred",
      "type": "event"
    },
    {
      "anonymous": false,
      "inputs": [
        {
          "indexed": true,
          "internalType": "address",
          "name": "controller",
          "type": "address"
        }
      ],
      "name": "VaultControllerSet",
      "type": "event"
    },
    {
      "anonymous": false,
      "inputs": [
        {
          "indexed": false,
          "internalType": "uint256",
          "name": "token0Amount",
          "type": "uint256"
        },
        {
          "indexed": false,
          "internalType": "uint256",
          "name": "token1Amount",
          "type": "uint256"
        }
      ],
      "name": "YieldClaimed",
      "type": "event"
    },
    {
      "inputs": [
        {
          "internalType": "address",
          "name": "user",
          "type": "address"
        }
      ],
      "name": "balanceOf",
      "outputs": [
        {
          "internalType": "uint256",
          "name": "",
          "type": "uint256"
        }
      ],
      "stateMutability": "view",
      "type": "function"
    },
    {
      "inputs": [],
      "name": "btc",
      "outputs": [
        {
          "internalType": "contract IERC20",
          "name": "",
          "type": "address"
        }
      ],
      "stateMutability": "view",
      "type": "function"
    },
    {
      "inputs": [],
      "name": "claimYield",
      "outputs": [
        {
          "internalType": "uint256",
          "name": "claimed0",
          "type": "uint256"
        },
        {
          "internalType": "uint256",
          "name": "claimed1",
          "type": "uint256"
        }
      ],
      "stateMutability": "nonpayable",
      "type": "function"
    },
    {
      "inputs": [
        {
          "internalType": "address",
          "name": "token",
          "type": "address"
        },
        {
          "internalType": "uint256",
          "name": "amount",
          "type": "uint256"
        }
      ],
      "name": "emergencyWithdraw",
      "outputs": [],
      "stateMutability": "nonpayable",
      "type": "function"
    },
    {
      "inputs": [
        {
          "internalType": "uint256",
          "name": "amount",
          "type": "uint256"
        }
      ],
      "name": "fundWithMUSD",
      "outputs": [],
      "stateMutability": "nonpayable",
      "type": "function"
    },
    {
      "inputs": [],
      "name": "getClaimableYield",
      "outputs": [
        {
          "internalType": "uint256",
          "name": "claimable0",
          "type": "uint256"
        },
        {
          "internalType": "uint256",
          "name": "claimable1",
          "type": "uint256"
        }
      ],
      "stateMutability": "view",
      "type": "function"
    },
    {
      "inputs": [],
      "name": "harvester",
      "outputs": [
        {
          "internalType": "address",
          "name": "",
          "type": "address"
        }
      ],
      "stateMutability": "view",
      "type": "function"
    },
    {
      "inputs": [
        {
          "internalType": "uint256",
          "name": "amount",
          "type": "uint256"
        },
        {
          "internalType": "address",
          "name": "user",
          "type": "address"
        }
      ],
      "name": "invest",
      "outputs": [],
      "stateMutability": "nonpayable",
      "type": "function"
    },
    {
      "inputs": [],
      "name": "musd",
      "outputs": [
        {
          "internalType": "contract IERC20",
          "name": "",
          "type": "address"
        }
      ],
      "stateMutability": "view",
      "type": "function"
    },
    {
      "inputs": [],
      "name": "musdBtcPool",
      "outputs": [
        {
          "internalType": "contract ITigrisPool",
          "name": "",
          "type": "address"
        }
      ],
      "stateMutability": "view",
      "type": "function"
    },
    {
      "inputs": [],
      "name": "owner",
      "outputs": [
        {
          "internalType": "address",
          "name": "",
          "type": "address"
        }
      ],
      "stateMutability": "view",
      "type": "function"
    },
    {
      "inputs": [],
      "name": "renounceOwnership",
      "outputs": [],
      "stateMutability": "nonpayable",
      "type": "function"
    },
    {
      "inputs": [
        {
          "internalType": "address",
          "name": "_harvester",
          "type": "address"
        }
      ],
      "name": "setHarvester",
      "outputs": [],
      "stateMutability": "nonpayable",
      "type": "function"
    },
    {
      "inputs": [
        {
          "internalType": "address",
          "name": "_vaultController",
          "type": "address"
        }
      ],
      "name": "setVaultController",
      "outputs": [],
      "stateMutability": "nonpayable",
      "type": "function"
    },
    {
      "inputs": [],
      "name": "tigrisRouter",
      "outputs": [
        {
          "internalType": "contract ITigrisRouter",
          "name": "",
          "type": "address"
        }
      ],
      "stateMutability": "view",
      "type": "function"
    },
    {
      "inputs": [],
      "name": "totalBTCDeposited",
      "outputs": [
        {
          "internalType": "uint256",
          "name": "",
          "type": "uint256"
        }
      ],
      "stateMutability": "view",
      "type": "function"
    },
    {
      "inputs": [],
      "name": "totalLPTokens",
      "outputs": [
        {
          "internalType": "uint256",
          "name": "",
          "type": "uint256"
        }
      ],
      "stateMutability": "view",
      "type": "function"
    },
    {
      "inputs": [
        {
          "internalType": "address",
          "name": "newOwner",
          "type": "address"
        }
      ],
      "name": "transferOwnership",
      "outputs": [],
      "stateMutability": "nonpayable",
      "type": "function"
    },
    {
      "inputs": [
        {
          "internalType": "address",
          "name": "",
          "type": "address"
        }
      ],
      "name": "userCollateral",
      "outputs": [
        {
          "internalType": "uint256",
          "name": "",
          "type": "uint256"
        }
      ],
      "stateMutability": "view",
      "type": "function"
    },
    {
      "inputs": [],
      "name": "vaultController",
      "outputs": [
        {
          "internalType": "address",
          "name": "",
          "type": "address"
        }
      ],
      "stateMutability": "view",
      "type": "function"
    },
    {
      "inputs": [
        {
          "internalType": "uint256",
          "name": "amount",
          "type": "uint256"
        },
        {
          "internalType": "address",
          "name": "user",
          "type": "address"
        }
      ],
      "name": "withdraw",
      "outputs": [],
      "stateMutability": "nonpayable",
      "type": "function"
    }
  ],
  "bytecode": "0x61010080604052346103315760808161172880380380916100208285610336565b833981010312610331576100338161036f565b906100406020820161036f565b9061005960606100526040840161036f565b920161036f565b60008054336001600160a01b0319821681178355604051969395939290916001600160a01b0316907f8be0079c531659141344cd1fd0a4f28419497f9722a3daafe3b4186f6b6457e09080a3600180556001600160a01b03169384156102ef57506001600160a01b03169081156102aa576001600160a01b0316918215610274576001600160a01b0316928315610240576000936020928260805260a0528360c05260e05260446040518095819363095ea7b360e01b8352866004840152811960248401525af190811561021957600092602092610225575b5060a05160405163095ea7b360e01b81526004810192909252831960248301529092839160449183916001600160a01b03165af18015610219576101ea575b60405161138c908161039c8239608051818181610329015281816109650152610f51015260a05181818161029f01528181610a2501528181610e0a0152610fb1015260c0518181816102e401528181610b280152611005015260e05181818161025a015281816104d40152818161066601526109ad0152f35b61020b9060203d602011610212575b6102038183610336565b810190610383565b5038610171565b503d6101f9565b6040513d6000823e3d90fd5b61023b90833d8511610212576102038183610336565b610132565b60405162461bcd60e51b815260206004820152600c60248201526b125b9d985b1a59081c1bdbdb60a21b6044820152606490fd5b60405162461bcd60e51b815260206004820152600e60248201526d24b73b30b634b2103937baba32b960911b6044820152606490fd5b60405162461bcd60e51b815260206004820152601460248201527f496e76616c6964204d55534420616464726573730000000000000000000000006044820152606490fd5b62461bcd60e51b815260206004820152601360248201527f496e76616c6964204254432061646472657373000000000000000000000000006044820152606490fd5b600080fd5b601f909101601f19168101906001600160401b0382119082101761035957604052565b634e487b7160e01b600052604160045260246000fd5b51906001600160a01b038216820361033157565b9081602091031261033157518015158103610331579056fe6080604052600436101561001257600080fd5b60003560e01c8062f714ce14610eda57806315de1daa14610e385780631dccd98114610dc45780633d103b97146108fc578063406cf229146106235780634bdaeac1146105fa5780635f36b048146105d157806370a0823114610102578063715018a6146105785780638da5cb5b1461054f5780638e3a1cb8146104a857806395ccea67146103fb57806399747f1514610358578063a28d57d814610313578063a9da3e01146102ce578063cab666d014610289578063eeca2b9914610244578063eef0e49814610226578063ef6283d914610208578063f2fde38b146101415763f69f1e4a1461010257600080fd5b3461013c57602036600319011261013c576001600160a01b03610123611168565b1660005260046020526020604060002054604051908152f35b600080fd5b3461013c57602036600319011261013c5761015a611168565b6101626112fe565b6001600160a01b031680156101b457600080546001600160a01b03198116831782556001600160a01b0316907f8be0079c531659141344cd1fd0a4f28419497f9722a3daafe3b4186f6b6457e09080a3005b60405162461bcd60e51b815260206004820152602660248201527f4f776e61626c653a206e6577206f776e657220697320746865207a65726f206160448201526564647265737360d01b6064820152608490fd5b3461013c57600036600319011261013c576020600654604051908152f35b3461013c57600036600319011261013c576020600554604051908152f35b3461013c57600036600319011261013c576040517f00000000000000000000000000000000000000000000000000000000000000006001600160a01b03168152602090f35b3461013c57600036600319011261013c576040517f00000000000000000000000000000000000000000000000000000000000000006001600160a01b03168152602090f35b3461013c57600036600319011261013c576040517f00000000000000000000000000000000000000000000000000000000000000006001600160a01b03168152602090f35b3461013c57600036600319011261013c576040517f00000000000000000000000000000000000000000000000000000000000000006001600160a01b03168152602090f35b3461013c57602036600319011261013c57610371611168565b6103796112fe565b6001600160a01b031680156103c157600280546001600160a01b031916821790557f3a28cd8b96695a9d425abe0b7be8d02183254822699ca95f43852027c6a19034600080a2005b60405162461bcd60e51b815260206004820152601260248201527124b73b30b634b21031b7b73a3937b63632b960711b6044820152606490fd5b3461013c57604036600319011261013c576000602061045961041b611168565b6104236112fe565b835460405163a9059cbb60e01b81526001600160a01b039091166004820152602480359082015293849283919082906044820190565b03926001600160a01b03165af1801561049c5761047257005b6104939060203d602011610495575b61048b8183611202565b81019061125d565b005b503d610481565b6040513d6000823e3d90fd5b3461013c57600036600319011261013c576040805163402914f560e01b815230600482015290816024817f00000000000000000000000000000000000000000000000000000000000000006001600160a01b03165afa90811561049c57604091600091600091610520575b5082519182526020820152f35b90506105429150823d8411610548575b61053a8183611202565b81019061123a565b83610513565b503d610530565b3461013c57600036600319011261013c576000546040516001600160a01b039091168152602090f35b3461013c57600036600319011261013c576105916112fe565b600080546001600160a01b0319811682556001600160a01b03167f8be0079c531659141344cd1fd0a4f28419497f9722a3daafe3b4186f6b6457e08280a3005b3461013c57600036600319011261013c576002546040516001600160a01b039091168152602090f35b3461013c57600036600319011261013c576003546040516001600160a01b039091168152602090f35b3461013c57600036600319011261013c5761063c6112a8565b6003546001600160a01b0316331480156108e8575b156108b2576040805163d294f09360e01b81527f00000000000000000000000000000000000000000000000000000000000000006001600160a01b031691816004816000865af1801561049c576000918291610891575b50816107cf575b806106f7575b604092507fcf996e5ed7066f464b47962b0c29e7da8e4cd86d95981acf1d4bbdcc4e38de4e838051848152836020820152a16001805582519182526020820152f35b60206004936040519485809263d21220a760e01b82525afa801561049c5781602091610761956000916107a2575b5060035460405163a9059cbb60e01b81526001600160a01b03909116600482015260248101929092529094859190829060009082906044820190565b03926001600160a01b03165af192831561049c57604093610783575b506106b5565b61079b9060203d6020116104955761048b8183611202565b508361077d565b6107c29150833d85116107c8575b6107ba8183611202565b810190611289565b86610725565b503d6107b0565b604051630dfe168160e01b8152602081600481875afa801561049c578360209161083793600091610874575b5060035460405163a9059cbb60e01b81526001600160a01b03909116600482015260248101929092529092839190829060009082906044820190565b03926001600160a01b03165af1801561049c57610855575b506106af565b61086d9060203d6020116104955761048b8183611202565b508361084f565b61088b9150833d85116107c8576107ba8183611202565b876107fb565b90506108ac915060403d6040116105485761053a8183611202565b836106a8565b60405162461bcd60e51b815260206004820152600e60248201526d27b7363c903430b93b32b9ba32b960911b6044820152606490fd5b506000546001600160a01b03163314610651565b3461013c57604036600319011261013c57600435610918611152565b6109206112a8565b61093560018060a01b0360025416331461117e565b8115610d8a576040516323b872dd60e01b8152336004820152306024820152604481018390526001600160a01b037f000000000000000000000000000000000000000000000000000000000000000016906020816064816000865af1801561049c57610d6d575b50604051630240bc6b60e21b8152927f00000000000000000000000000000000000000000000000000000000000000006001600160a01b0316606085600481845afa90811561049c576000958692610d0d575b50946020600494959660405195868092630dfe168160e01b82525afa93841561049c57600094610cec575b506001600160a01b037f0000000000000000000000000000000000000000000000000000000000000000811694168403610ccf57906001600160701b03610a6681610a6e9416856111c2565b9116906111d5565b915b6040516370a0823160e01b8152306004820152602081602481855afa801561049c578491600091610c9a575b5010610c5557605f820290828204605f03610c3f57605f840291848304605f1485151715610c3f5761012c420194854211610c3f57606494859360405198635a47ddc360e01b8a5260048a01526024890152600060448901528388015260848701520460a48501520460c48301523060e483015261010482015260608161012481600060018060a01b037f0000000000000000000000000000000000000000000000000000000000000000165af1801561049c5760009081928291610bdc575b507f9bce88ff835d9d8831ccf5c7e04a2533f68510314393b3a54f990dea62e7134e916060918560018060a01b0316948560005260046020526040600020610ba58482546111f5565b9055610bb3836005546111f5565b600555610bc2826006546111f5565b60065560405192835260208301526040820152a260018055005b9250506060823d606011610c37575b81610bf860609383611202565b81010312610c345750805160208201516040909201517f9bce88ff835d9d8831ccf5c7e04a2533f68510314393b3a54f990dea62e7134e610b5c565b80fd5b3d9150610beb565b634e487b7160e01b600052601160045260246000fd5b60405162461bcd60e51b815260206004820152601960248201527f496e73756666696369656e74204d5553442072657365727665000000000000006044820152606490fd5b9150506020813d602011610cc7575b81610cb660209383611202565b8101031261013c5783905187610a9c565b3d9150610ca9565b6001600160701b03610a6681610ce69416856111c2565b91610a70565b610d0691945060203d6020116107c8576107ba8183611202565b9286610a1a565b9091506060813d606011610d65575b81610d2960609383611202565b81010312610d6157610d3a81611275565b956040610d4960208401611275565b92015163ffffffff811603610c3457509060206109ef565b8580fd5b3d9150610d1c565b610d859060203d6020116104955761048b8183611202565b61099c565b60405162461bcd60e51b81526020600482015260126024820152710416d6f756e74206d757374206265203e20360741b6044820152606490fd5b3461013c57602036600319011261013c576040516323b872dd60e01b81523360048083019190915230602483015235604482015260208160648160006001600160a01b037f0000000000000000000000000000000000000000000000000000000000000000165af1801561049c5761047257005b3461013c57602036600319011261013c57610e51611168565b610e596112fe565b6001600160a01b03168015610ea157600380546001600160a01b031916821790557f17b2c8a80f7d8a58fb89c33c7ca97a2e3107030497101ef140622060dd87d1d9600080a2005b60405162461bcd60e51b815260206004820152601160248201527024b73b30b634b2103430b93b32b9ba32b960791b6044820152606490fd5b3461013c57604036600319011261013c57600435610ef6611152565b610efe6112a8565b610f1360018060a01b0360025416331461117e565b60018060a01b031690816000526004602052806040600020541061110d57610f49610f40600654836111c2565b600554906111d5565b605f828102927f00000000000000000000000000000000000000000000000000000000000000006001600160a01b0316918115918504141715610c3f5761012c4201804211610c3f57606460405194635d5155ef60e11b865283600487015260018060a01b037f0000000000000000000000000000000000000000000000000000000000000000166024870152846044870152046064850152600060848501523060a485015260c484015260408360e481600060018060a01b037f0000000000000000000000000000000000000000000000000000000000000000165af191821561049c576110b1946020946000946110e5575b50906110739160005260048552604060002061105a858254611250565b905561106884600554611250565b600555600654611250565b60065560025460405163a9059cbb60e01b81526001600160a01b03909116600482015260248101929092529092839190829060009082906044820190565b03925af1801561049c576110c6575b60018055005b6110de9060203d6020116104955761048b8183611202565b50806110c0565b611073929194506111049060403d6040116105485761053a8183611202565b5093909161103d565b60405162461bcd60e51b815260206004820152601760248201527f496e73756666696369656e7420636f6c6c61746572616c0000000000000000006044820152606490fd5b602435906001600160a01b038216820361013c57565b600435906001600160a01b038216820361013c57565b1561118557565b60405162461bcd60e51b815260206004820152601560248201527427b7363c903b30bab63a1031b7b73a3937b63632b960591b6044820152606490fd5b81810292918115918404141715610c3f57565b81156111df570490565b634e487b7160e01b600052601260045260246000fd5b91908201809211610c3f57565b90601f8019910116810190811067ffffffffffffffff82111761122457604052565b634e487b7160e01b600052604160045260246000fd5b919082604091031261013c576020825192015190565b91908203918211610c3f57565b9081602091031261013c5751801515810361013c5790565b51906001600160701b038216820361013c57565b9081602091031261013c57516001600160a01b038116810361013c5790565b6002600154146112b9576002600155565b60405162461bcd60e51b815260206004820152601f60248201527f5265656e7472616e637947756172643a207265656e7472616e742063616c6c006044820152606490fd5b6000546001600160a01b0316330361131257565b606460405162461bcd60e51b815260206004820152602060248201527f4f776e61626c653a2063616c6c6572206973206e6f7420746865206f776e65726044820152fdfea2646970667358221220ecd20e8bdc0ed6e38af7f7c1285176f231c0209b8cfecdb641896795e0d44d6964736f6c634300081c0033",
  "linkReferences": {},
  "deployedLinkReferences": {}
}