{
  "_format": "hh-sol-artifact-1",
  "contractName": "TurboLoopReal",
  "sourceName": "contracts/TurboLoopReal.sol",
  "abi": [
    {
      "inputs": [
        {
          "internalType": "address",
          "name": "_bmusd",
          "type": "address"
        },
        {
          "internalType": "address",
          "name": "_musd",
          "type": "address"
        },
        {
          "internalType": "address",
          "name": "_tigrisRouter",
          "type": "address"
        },
        {
          "internalType": "address",
          "name": "_factory",
          "type": "address"
        }
      ],
      "stateMutability": "nonpayable",
      "type": "constructor"
    },
    {
      "anonymous": false,
      "inputs": [
        {
          "indexed": true,
          "internalType": "address",
          "name": "user",
          "type": "address"
        },
        {
          "indexed": false,
          "internalType": "uint256",
          "name": "borrowAmount",
          "type": "uint256"
        },
        {
          "indexed": false,
          "internalType": "uint256",
          "name": "musdAmount",
          "type": "uint256"
        },
        {
          "indexed": false,
          "internalType": "uint256",
          "name": "lpTokens",
          "type": "uint256"
        }
      ],
      "name": "LoopExecuted",
      "type": "event"
    },
    {
      "anonymous": false,
      "inputs": [
        {
          "indexed": true,
          "internalType": "address",
          "name": "previousOwner",
          "type": "address"
        },
        {
          "indexed": true,
          "internalType": "address",
          "name": "newOwner",
          "type": "address"
        }
      ],
      "name": "OwnershipTransferred",
      "type": "event"
    },
    {
      "anonymous": false,
      "inputs": [
        {
          "indexed": true,
          "internalType": "address",
          "name": "pool",
          "type": "address"
        }
      ],
      "name": "PoolSet",
      "type": "event"
    },
    {
      "inputs": [],
      "name": "bmusd",
      "outputs": [
        {
          "internalType": "contract IERC20",
          "name": "",
          "type": "address"
        }
      ],
      "stateMutability": "view",
      "type": "function"
    },
    {
      "inputs": [],
      "name": "bmusdMusdPool",
      "outputs": [
        {
          "internalType": "contract ITigrisPool",
          "name": "",
          "type": "address"
        }
      ],
      "stateMutability": "view",
      "type": "function"
    },
    {
      "inputs": [],
      "name": "claimSecondaryFees",
      "outputs": [
        {
          "internalType": "uint256",
          "name": "claimed0",
          "type": "uint256"
        },
        {
          "internalType": "uint256",
          "name": "claimed1",
          "type": "uint256"
        }
      ],
      "stateMutability": "nonpayable",
      "type": "function"
    },
    {
      "inputs": [],
      "name": "factory",
      "outputs": [
        {
          "internalType": "address",
          "name": "",
          "type": "address"
        }
      ],
      "stateMutability": "view",
      "type": "function"
    },
    {
      "inputs": [],
      "name": "getClaimableSecondaryFees",
      "outputs": [
        {
          "internalType": "uint256",
          "name": "claimable0",
          "type": "uint256"
        },
        {
          "internalType": "uint256",
          "name": "claimable1",
          "type": "uint256"
        }
      ],
      "stateMutability": "view",
      "type": "function"
    },
    {
      "inputs": [
        {
          "internalType": "address",
          "name": "user",
          "type": "address"
        }
      ],
      "name": "getSecondaryLP",
      "outputs": [
        {
          "internalType": "uint256",
          "name": "",
          "type": "uint256"
        }
      ],
      "stateMutability": "view",
      "type": "function"
    },
    {
      "inputs": [
        {
          "internalType": "uint256",
          "name": "bmusdAmount",
          "type": "uint256"
        },
        {
          "internalType": "uint256",
          "name": "musdAmount",
          "type": "uint256"
        }
      ],
      "name": "loop",
      "outputs": [],
      "stateMutability": "nonpayable",
      "type": "function"
    },
    {
      "inputs": [],
      "name": "musd",
      "outputs": [
        {
          "internalType": "contract IERC20",
          "name": "",
          "type": "address"
        }
      ],
      "stateMutability": "view",
      "type": "function"
    },
    {
      "inputs": [],
      "name": "owner",
      "outputs": [
        {
          "internalType": "address",
          "name": "",
          "type": "address"
        }
      ],
      "stateMutability": "view",
      "type": "function"
    },
    {
      "inputs": [],
      "name": "renounceOwnership",
      "outputs": [],
      "stateMutability": "nonpayable",
      "type": "function"
    },
    {
      "inputs": [
        {
          "internalType": "address",
          "name": "_pool",
          "type": "address"
        }
      ],
      "name": "setPool",
      "outputs": [],
      "stateMutability": "nonpayable",
      "type": "function"
    },
    {
      "inputs": [],
      "name": "tigrisRouter",
      "outputs": [
        {
          "internalType": "contract ITigrisRouter",
          "name": "",
          "type": "address"
        }
      ],
      "stateMutability": "view",
      "type": "function"
    },
    {
      "inputs": [
        {
          "internalType": "address",
          "name": "newOwner",
          "type": "address"
        }
      ],
      "name": "transferOwnership",
      "outputs": [],
      "stateMutability": "nonpayable",
      "type": "function"
    },
    {
      "inputs": [
        {
          "internalType": "address",
          "name": "",
          "type": "address"
        }
      ],
      "name": "userSecondaryLP",
      "outputs": [
        {
          "internalType": "uint256",
          "name": "",
          "type": "uint256"
        }
      ],
      "stateMutability": "view",
      "type": "function"
    }
  ],
  "bytecode": "0x608080604052346102d457608081610f6a803803809161001f82856102d9565b8339810103126102d45761003281610312565b9061003f60208201610312565b90610058606061005160408401610312565b9201610312565b60008054336001600160a01b0319821681178355604051969395939290916001600160a01b0316907f8be0079c531659141344cd1fd0a4f28419497f9722a3daafe3b4186f6b6457e09080a3600180556001600160a01b03169384156102a257506001600160a01b031690811561026e576001600160a01b0316918215610238576001600160a01b031692831561020157600580546001600160a01b031990811683179091556006805482169093179092556002805483168417905560048054909216909317815560405163095ea7b360e01b8152908101829052600019602482015291602090839060449082906000905af19081156101da576000926020926101e6575b5060065460405163095ea7b360e01b81526004810192909252831960248301529092839160449183916001600160a01b03165af180156101da576101ab575b604051610c2b908161033f8239f35b6101cc9060203d6020116101d3575b6101c481836102d9565b810190610326565b503861019c565b503d6101ba565b6040513d6000823e3d90fd5b6101fc90833d85116101d3576101c481836102d9565b61015d565b60405162461bcd60e51b815260206004820152600f60248201526e496e76616c696420666163746f727960881b6044820152606490fd5b60405162461bcd60e51b815260206004820152600e60248201526d24b73b30b634b2103937baba32b960911b6044820152606490fd5b60405162461bcd60e51b815260206004820152600c60248201526b125b9d985b1a5908135554d160a21b6044820152606490fd5b62461bcd60e51b815260206004820152600d60248201526c125b9d985b1a590818935554d1609a1b6044820152606490fd5b600080fd5b601f909101601f19168101906001600160401b038211908210176102fc57604052565b634e487b7160e01b600052604160045260246000fd5b51906001600160a01b03821682036102d457565b908160209103126102d4575180151581036102d4579056fe608080604052600436101561001357600080fd5b60003560e01c90816329aefc9714610a7a57508063402b7423146106c65780634437152a14610625578063495c4932146105fc578063715018a6146105a35780638da5cb5b1461057a578063a9da3e0114610551578063aefb1b1e146104d5578063b050a60714610497578063c45a01551461046e578063cab666d014610445578063d11262a0146101b2578063d8cd97d2146101895763f2fde38b146100b957600080fd5b34610184576020366003190112610184576004356001600160a01b03811690819003610184576100e7610b9d565b801561013057600080546001600160a01b03198116831782556001600160a01b0316907f8be0079c531659141344cd1fd0a4f28419497f9722a3daafe3b4186f6b6457e09080a3005b60405162461bcd60e51b815260206004820152602660248201527f4f776e61626c653a206e6577206f776e657220697320746865207a65726f206160448201526564647265737360d01b6064820152608490fd5b600080fd5b34610184576000366003190112610184576005546040516001600160a01b039091168152602090f35b34610184576000366003190112610184576101cb610b47565b3360005260076020526040600020541561040f576003546040805163d294f09360e01b815291829060049082906000906001600160a01b03165af19081156102e8576000906000926103dd575b5080610325575b81610238575b6040916001805582519182526020820152f35b60035460405163d21220a760e01b81529290602090849060049082906001600160a01b03165afa9283156102e8576000936102f4575b5060405163a9059cbb60e01b81523360048201526024810182905292602090849060449082906000906001600160a01b03165af19283156102e8576040936102b9575b509150610225565b6102da9060203d6020116102e1575b6102d28183610ab5565b810190610aed565b50836102b1565b503d6102c8565b6040513d6000823e3d90fd5b61031791935060203d60201161031e575b61030f8183610ab5565b810190610b28565b918361026e565b503d610305565b600354604051630dfe168160e01b815290602090829060049082906001600160a01b03165afa9081156102e8576000916103be575b5060405163a9059cbb60e01b81523360048201526024810183905290602090829060449082906000906001600160a01b03165af180156102e85761039f575b5061021f565b6103b79060203d6020116102e1576102d28183610ab5565b5082610399565b6103d7915060203d60201161031e5761030f8183610ab5565b8361035a565b9050610401915060403d604011610408575b6103f98183610ab5565b810190610b12565b9082610218565b503d6103ef565b60405162461bcd60e51b815260206004820152600e60248201526d2737902628103837b9b4ba34b7b760911b6044820152606490fd5b34610184576000366003190112610184576006546040516001600160a01b039091168152602090f35b34610184576000366003190112610184576004546040516001600160a01b039091168152602090f35b34610184576020366003190112610184576004356001600160a01b038116908190036101845760005260076020526020604060002054604051908152f35b34610184576000366003190112610184576003546040805163402914f560e01b815230600482015291829060249082906001600160a01b03165afa9081156102e857604091600091600091610532575b5082519182526020820152f35b905061054b9150823d8411610408576103f98183610ab5565b83610525565b34610184576000366003190112610184576002546040516001600160a01b039091168152602090f35b34610184576000366003190112610184576000546040516001600160a01b039091168152602090f35b34610184576000366003190112610184576105bc610b9d565b600080546001600160a01b0319811682556001600160a01b03167f8be0079c531659141344cd1fd0a4f28419497f9722a3daafe3b4186f6b6457e08280a3005b34610184576000366003190112610184576003546040516001600160a01b039091168152602090f35b34610184576020366003190112610184576004356001600160a01b0381169081900361018457610653610b9d565b801561069257600380546001600160a01b031916821790557f025f89b99c8ce32af8da7624f4575b920a86ebf07870d85a9fb545fee349ddce600080a2005b60405162461bcd60e51b815260206004820152600c60248201526b125b9d985b1a59081c1bdbdb60a21b6044820152606490fd5b34610184576040366003190112610184576004356024356106e5610b47565b8115610a355780156109f0576005546040516323b872dd60e01b81523360048201523060248201526044810184905290602090829060649082906000906001600160a01b03165af180156102e8576109d3575b506006546040516323b872dd60e01b81523360048201523060248201526044810183905290602090829060649082906000906001600160a01b03165af180156102e8576109b6575b50600254600554600654605f85810294936001600160a01b0390811693928116921690868604900361095a57605f840290848204605f0361095a5761012c42019182421161095a57606094610124936064600093816040519b8c998a98635a47ddc360e01b8a5260048a01526024890152600160448901528d828901528b60848901520460a48701520460c48501523060e48501526101048401525af19182156102e857600080918194610970575b50336000526007602052604060002080549085820180921161095a575580851161090f575b5080821161089a575b50604051928352602083015260408201527fc4457a2d9b793f5ba6976994ac4fc2c9d0f4db02e0f1ba054dc5eb9f4dd71ee560603392a260018055005b60206108e16000926108b760018060a01b03600654169186610b05565b60405163a9059cbb60e01b8152336004820152602481019190915293849283919082906044820190565b03925af180156102e8571561085d576109089060203d6020116102e1576102d28183610ab5565b508361085d565b602061092c6000926108b760018060a01b03600554169189610b05565b03925af180156102e85715610854576109539060203d6020116102e1576102d28183610ab5565b5084610854565b634e487b7160e01b600052601160045260246000fd5b935090506060833d6060116109ae575b8161098d60609383610ab5565b810103126109ab57508151602083015160409093015192908561082f565b80fd5b3d9150610980565b6109ce9060203d6020116102e1576102d28183610ab5565b610780565b6109eb9060203d6020116102e1576102d28183610ab5565b610738565b60405162461bcd60e51b815260206004820152601760248201527f4d55534420616d6f756e74206d757374206265203e20300000000000000000006044820152606490fd5b60405162461bcd60e51b815260206004820152601860248201527f624d55534420616d6f756e74206d757374206265203e203000000000000000006044820152606490fd5b34610184576020366003190112610184576004356001600160a01b038116919082900361018457602091600052600782526040600020548152f35b90601f8019910116810190811067ffffffffffffffff821117610ad757604052565b634e487b7160e01b600052604160045260246000fd5b90816020910312610184575180151581036101845790565b9190820391821161095a57565b9190826040910312610184576020825192015190565b9081602091031261018457516001600160a01b03811681036101845790565b600260015414610b58576002600155565b60405162461bcd60e51b815260206004820152601f60248201527f5265656e7472616e637947756172643a207265656e7472616e742063616c6c006044820152606490fd5b6000546001600160a01b03163303610bb157565b606460405162461bcd60e51b815260206004820152602060248201527f4f776e61626c653a2063616c6c6572206973206e6f7420746865206f776e65726044820152fdfea2646970667358221220ce8285656d73b69cedb06180258ed500984a529d7b281981ae39e3d8ba8153d664736f6c634300081c0033",
  "linkReferences": {},
  "deployedLinkReferences": {}
}