{
  "_format": "hh-sol-artifact-1",
  "contractName": "VaultController",
  "sourceName": "contracts/VaultController.sol",
  "abi": [
    {
      "inputs": [
        {
          "internalType": "address",
          "name": "_btc",
          "type": "address"
        }
      ],
      "stateMutability": "nonpayable",
      "type": "constructor"
    },
    {
      "anonymous": false,
      "inputs": [
        {
          "indexed": true,
          "internalType": "address",
          "name": "debtManager",
          "type": "address"
        }
      ],
      "name": "DebtManagerSet",
      "type": "event"
    },
    {
      "anonymous": false,
      "inputs": [
        {
          "indexed": true,
          "internalType": "address",
          "name": "user",
          "type": "address"
        },
        {
          "indexed": false,
          "internalType": "uint256",
          "name": "amount",
          "type": "uint256"
        }
      ],
      "name": "Deposited",
      "type": "event"
    },
    {
      "anonymous": false,
      "inputs": [
        {
          "indexed": true,
          "internalType": "address",
          "name": "previousOwner",
          "type": "address"
        },
        {
          "indexed": true,
          "internalType": "address",
          "name": "newOwner",
          "type": "address"
        }
      ],
      "name": "OwnershipTransferred",
      "type": "event"
    },
    {
      "anonymous": false,
      "inputs": [
        {
          "indexed": true,
          "internalType": "address",
          "name": "strategy",
          "type": "address"
        }
      ],
      "name": "StrategySet",
      "type": "event"
    },
    {
      "anonymous": false,
      "inputs": [
        {
          "indexed": true,
          "internalType": "address",
          "name": "user",
          "type": "address"
        },
        {
          "indexed": false,
          "internalType": "uint256",
          "name": "amount",
          "type": "uint256"
        }
      ],
      "name": "Withdrawn",
      "type": "event"
    },
    {
      "inputs": [
        {
          "internalType": "address",
          "name": "user",
          "type": "address"
        }
      ],
      "name": "balanceOf",
      "outputs": [
        {
          "internalType": "uint256",
          "name": "",
          "type": "uint256"
        }
      ],
      "stateMutability": "view",
      "type": "function"
    },
    {
      "inputs": [],
      "name": "btc",
      "outputs": [
        {
          "internalType": "contract IERC20",
          "name": "",
          "type": "address"
        }
      ],
      "stateMutability": "view",
      "type": "function"
    },
    {
      "inputs": [],
      "name": "debtManager",
      "outputs": [
        {
          "internalType": "contract IDebtManager",
          "name": "",
          "type": "address"
        }
      ],
      "stateMutability": "view",
      "type": "function"
    },
    {
      "inputs": [
        {
          "internalType": "uint256",
          "name": "amount",
          "type": "uint256"
        }
      ],
      "name": "deposit",
      "outputs": [],
      "stateMutability": "nonpayable",
      "type": "function"
    },
    {
      "inputs": [],
      "name": "owner",
      "outputs": [
        {
          "internalType": "address",
          "name": "",
          "type": "address"
        }
      ],
      "stateMutability": "view",
      "type": "function"
    },
    {
      "inputs": [],
      "name": "renounceOwnership",
      "outputs": [],
      "stateMutability": "nonpayable",
      "type": "function"
    },
    {
      "inputs": [
        {
          "internalType": "address",
          "name": "_debtManager",
          "type": "address"
        }
      ],
      "name": "setDebtManager",
      "outputs": [],
      "stateMutability": "nonpayable",
      "type": "function"
    },
    {
      "inputs": [
        {
          "internalType": "address",
          "name": "_strategy",
          "type": "address"
        }
      ],
      "name": "setStrategy",
      "outputs": [],
      "stateMutability": "nonpayable",
      "type": "function"
    },
    {
      "inputs": [],
      "name": "strategy",
      "outputs": [
        {
          "internalType": "contract IStrategyBTC",
          "name": "",
          "type": "address"
        }
      ],
      "stateMutability": "view",
      "type": "function"
    },
    {
      "inputs": [],
      "name": "totalDeposits",
      "outputs": [
        {
          "internalType": "uint256",
          "name": "",
          "type": "uint256"
        }
      ],
      "stateMutability": "view",
      "type": "function"
    },
    {
      "inputs": [
        {
          "internalType": "address",
          "name": "newOwner",
          "type": "address"
        }
      ],
      "name": "transferOwnership",
      "outputs": [],
      "stateMutability": "nonpayable",
      "type": "function"
    },
    {
      "inputs": [
        {
          "internalType": "address",
          "name": "",
          "type": "address"
        }
      ],
      "name": "userDeposits",
      "outputs": [
        {
          "internalType": "uint256",
          "name": "",
          "type": "uint256"
        }
      ],
      "stateMutability": "view",
      "type": "function"
    },
    {
      "inputs": [
        {
          "internalType": "uint256",
          "name": "amount",
          "type": "uint256"
        }
      ],
      "name": "withdraw",
      "outputs": [],
      "stateMutability": "nonpayable",
      "type": "function"
    }
  ],
  "bytecode": "0x60a03461011657601f610c1138819003918201601f19168301916001600160401b0383118484101761011b5780849260209460405283398101031261011657516001600160a01b038116908190036101165760008054336001600160a01b03198216811783556040519290916001600160a01b0316907f8be0079c531659141344cd1fd0a4f28419497f9722a3daafe3b4186f6b6457e09080a36001805581156100d45750608052604051610adf908161013282396080518181816101e601528181610358015281816105a201526107400152f35b62461bcd60e51b815260206004820152601360248201527f496e76616c6964204254432061646472657373000000000000000000000000006044820152606490fd5b600080fd5b634e487b7160e01b600052604160045260246000fdfe608080604052600436101561001357600080fd5b600090813560e01c9081630ba36dcd146108bc575080632e1a7d4d1461065457806333a100ca1461053657806360b3a0331461050d57806370a08231146104d0578063715018a6146104765780637d882097146104585780638bfc007c146103ae5780638da5cb5b14610387578063a28d57d814610342578063a8c62e7614610319578063b6b55f251461017e5763f2fde38b146100b057600080fd5b3461017b57602036600319011261017b576004356001600160a01b03811690819003610179576100de610a51565b80156101255781546001600160a01b03198116821783556001600160a01b03167f8be0079c531659141344cd1fd0a4f28419497f9722a3daafe3b4186f6b6457e08380a380f35b60405162461bcd60e51b815260206004820152602660248201527f4f776e61626c653a206e6577206f776e657220697320746865207a65726f206160448201526564647265737360d01b6064820152608490fd5b505b80fd5b503461017b57602036600319011261017b5760043561019b6109fb565b6101a68115156108f6565b6002546101bd906001600160a01b03161515610937565b6040516323b872dd60e01b815233600482015230602482015260448101829052602081606481867f00000000000000000000000000000000000000000000000000000000000000006001600160a01b03165af1801561030e576102e1575b5060025482906001600160a01b0316803b1561017957604051633d103b9760e01b8152600481018490523360248201529082908290604490829084905af180156102d6576102c1575b505033825260046020526040822061027d8282546109ee565b905561028b816005546109ee565b6005556040519081527f2da466a7b24304f47e87fa2e1e5a81b9831ce54fec19055ce277ca2f39ba42c460203392a26001805580f35b816102cb91610976565b610179578138610264565b6040513d84823e3d90fd5b6103029060203d602011610307575b6102fa8183610976565b8101906109d1565b61021b565b503d6102f0565b6040513d85823e3d90fd5b503461017b578060031936011261017b576002546040516001600160a01b039091168152602090f35b503461017b578060031936011261017b576040517f00000000000000000000000000000000000000000000000000000000000000006001600160a01b03168152602090f35b503461017b578060031936011261017b57546040516001600160a01b039091168152602090f35b503461017b57602036600319011261017b576004356001600160a01b03811690819003610179576103dd610a51565b801561041c57600380546001600160a01b031916821790557f37d11a6e11b4b80f3a4367a6a2c69310cfe21b2c48ecde6e089854e15d620b158280a280f35b60405162461bcd60e51b815260206004820152601460248201527324b73b30b634b2103232b13a1036b0b730b3b2b960611b6044820152606490fd5b503461017b578060031936011261017b576020600554604051908152f35b503461017b578060031936011261017b5761048f610a51565b80546001600160a01b03198116825581906001600160a01b03167f8be0079c531659141344cd1fd0a4f28419497f9722a3daafe3b4186f6b6457e08280a380f35b503461017b57602036600319011261017b576004356001600160a01b03811690819003610179578160409160209352600483522054604051908152f35b503461017b578060031936011261017b576003546040516001600160a01b039091168152602090f35b503461017b57602036600319011261017b576004356001600160a01b0381169081900361017957610565610a51565b801561061c57600280546001600160a01b0319168217905560405163095ea7b360e01b8152600481018290526000196024820152602081604481867f00000000000000000000000000000000000000000000000000000000000000006001600160a01b03165af1801561030e576105ff575b507fe70d79dad95c835bdd87e9cf4665651c9e5abb3b756e4fd2bf45f29c95c3aa408280a280f35b6106179060203d602011610307576102fa8183610976565b6105d7565b60405162461bcd60e51b815260206004820152601060248201526f496e76616c696420737472617465677960801b6044820152606490fd5b503461017b57602036600319011261017b57600435906106726109fb565b61067d8215156108f6565b338152600460205281604082205410610880576002546001600160a01b03166106a7811515610937565b6003546001600160a01b0316806107d6575b50803b1561017957604051627b8a6760e11b8152600481018490523360248201529082908290604490829084905af180156102d6576107c6575b509033825260046020526040822061070c8282546109ae565b905561071a816005546109ae565b60055560405163a9059cbb60e01b815233600482015260248101829052602081604481867f00000000000000000000000000000000000000000000000000000000000000006001600160a01b03165af1801561030e576107a9575b506040519081527f7084f5476618d8e60b11ef0d7d3f06914655adb8793e28ff7f018d4c76d505d560203392a26001805580f35b6107c19060203d602011610307576102fa8183610976565b610775565b816107d091610976565b386106f3565b60206024916040519283809263b69e5c7760e01b82523360048301525afa90811561030e57839161084a575b5061080d57386106b9565b60405162461bcd60e51b8152602060048201526015602482015274135d5cdd081c995c185e481919589d08199a5c9cdd605a1b6044820152606490fd5b90506020813d602011610878575b8161086560209383610976565b81010312610874575138610802565b8280fd5b3d9150610858565b60405162461bcd60e51b8152602060048201526014602482015273125b9cdd59999a58da595b9d0819195c1bdcda5d60621b6044820152606490fd5b905034610179576020366003190112610179576004356001600160a01b038116908190036108745782604091602094526004845220548152f35b156108fd57565b60405162461bcd60e51b81526020600482015260126024820152710416d6f756e74206d757374206265203e20360741b6044820152606490fd5b1561093e57565b60405162461bcd60e51b815260206004820152601060248201526f14dd1c985d1959de481b9bdd081cd95d60821b6044820152606490fd5b90601f8019910116810190811067ffffffffffffffff82111761099857604052565b634e487b7160e01b600052604160045260246000fd5b919082039182116109bb57565b634e487b7160e01b600052601160045260246000fd5b908160209103126109e9575180151581036109e95790565b600080fd5b919082018092116109bb57565b600260015414610a0c576002600155565b60405162461bcd60e51b815260206004820152601f60248201527f5265656e7472616e637947756172643a207265656e7472616e742063616c6c006044820152606490fd5b6000546001600160a01b03163303610a6557565b606460405162461bcd60e51b815260206004820152602060248201527f4f776e61626c653a2063616c6c6572206973206e6f7420746865206f776e65726044820152fdfea2646970667358221220596221859163ea84e975733fb0cf72125d18a5c89398a47a9c9679fac430b0ef64736f6c634300081c0033",
  "linkReferences": {},
  "deployedLinkReferences": {}
}